:100000000C942A000C9447000C9447000C94470071
:100010000C9447000C9447000C9447000C94470044
:100020000C9447000C9447000C9447000C94470034
:100030000C9447000C9467000C9447000C94470004
:100040000C9447000C9447000C9447000C94470014
:100050000C94470011241FBECFE5D8E0DEBFCDBF12
:1000600010E0A0E6B0E0E6EFF0E002C005900D92EF
:10007000A236B107D9F720E0A2E6B0E001C01D9298
:10008000A336B207E1F70E944D000C9479000C945E
:1000900000005D9BFECF8CB9089510BC88E089B943
:1000A0008FEF87BB1BB886E880BD88E98AB9789452
:1000B00086B30E94490096B3809160009817D9F3E7
:1000C00086B30E94490086B380936000F4CF1F92EC
:1000D0000F920FB60F9211248F938CB18093620010
:1000E0008091620088BB8F910F900FBE0F901F9080
:0600F0001895F894FFCF03
:0200F6006400A4
:00000001FF
