S0130000436F6E74726F6C5F4C45442E73726563FC
S11300000C942A000C943C000C943C000C943C008E
S11300100C943C000C943C000C943C000C943C006C
S11300200C943C000C943C000C943C000C943C005C
S11300300C943C000C9451000C943C000C943C0037
S11300400C943C000C943C000C943C000C943C003C
S11300500C943C0011241FBECFE5D8E0DEBFCDBF19
S113006020E0A0E6B0E001C01D92A136B207E1F79E
S11300700E9442000C9463000C9400005D9BFECF30
S11300808CB9089510BC88E089B98FEF87BB1BB881
S113009086E880BD88E98AB9789486B30E943E00D8
S11300A0FCCF1F920F920FB60F9211248F938CB135
S11300B0809360008091600088BB8F910F900FBE89
S10D00C00F901F901895F894FFCFDD
S9030000FC
